{"abi":[{"type":"constructor","inputs":[{"name":"_registry","type":"address","internalType":"address"}],"stateMutability":"nonpayable"},{"type":"function","name":"createPlan","inputs":[{"name":"merchantId","type":"uint256","internalType":"uint256"},{"name":"name","type":"string","internalType":"string"},{"name":"priceInMUSD","type":"uint256","internalType":"uint256"},{"name":"planType","type":"uint8","internalType":"enum IMezoPayTypes.PlanType"},{"name":"billingInterval","type":"uint256","internalType":"uint256"}],"outputs":[{"name":"planId","type":"uint256","internalType":"uint256"}],"stateMutability":"nonpayable"},{"type":"function","name":"deactivatePlan","inputs":[{"name":"planId","type":"uint256","internalType":"uint256"}],"outputs":[],"stateMutability":"nonpayable"},{"type":"function","name":"getMerchantPlans","inputs":[{"name":"merchantId","type":"uint256","internalType":"uint256"}],"outputs":[{"name":"","type":"uint256[]","internalType":"uint256[]"}],"stateMutability":"view"},{"type":"function","name":"getPlan","inputs":[{"name":"planId","type":"uint256","internalType":"uint256"}],"outputs":[{"name":"","type":"tuple","internalType":"struct IMezoPayTypes.Plan","components":[{"name":"planId","type":"uint256","internalType":"uint256"},{"name":"merchantId","type":"uint256","internalType":"uint256"},{"name":"merchantWallet","type":"address","internalType":"address"},{"name":"name","type":"string","internalType":"string"},{"name":"priceInMUSD","type":"uint256","internalType":"uint256"},{"name":"planType","type":"uint8","internalType":"enum IMezoPayTypes.PlanType"},{"name":"billingInterval","type":"uint256","internalType":"uint256"},{"name":"active","type":"bool","internalType":"bool"},{"name":"createdAt","type":"uint256","internalType":"uint256"}]}],"stateMutability":"view"},{"type":"function","name":"merchantPlans","inputs":[{"name":"","type":"uint256","internalType":"uint256"},{"name":"","type":"uint256","internalType":"uint256"}],"outputs":[{"name":"","type":"uint256","internalType":"uint256"}],"stateMutability":"view"},{"type":"function","name":"planCount","inputs":[],"outputs":[{"name":"","type":"uint256","internalType":"uint256"}],"stateMutability":"view"},{"type":"function","name":"plans","inputs":[{"name":"","type":"uint256","internalType":"uint256"}],"outputs":[{"name":"planId","type":"uint256","internalType":"uint256"},{"name":"merchantId","type":"uint256","internalType":"uint256"},{"name":"merchantWallet","type":"address","internalType":"address"},{"name":"name","type":"string","internalType":"string"},{"name":"priceInMUSD","type":"uint256","internalType":"uint256"},{"name":"planType","type":"uint8","internalType":"enum IMezoPayTypes.PlanType"},{"name":"billingInterval","type":"uint256","internalType":"uint256"},{"name":"active","type":"bool","internalType":"bool"},{"name":"createdAt","type":"uint256","internalType":"uint256"}],"stateMutability":"view"},{"type":"function","name":"registry","inputs":[],"outputs":[{"name":"","type":"address","internalType":"contract MezoPayRegistry"}],"stateMutability":"view"},{"type":"event","name":"MerchantRegistered","inputs":[{"name":"merchantId","type":"uint256","indexed":true,"internalType":"uint256"},{"name":"wallet","type":"address","indexed":true,"internalType":"address"},{"name":"name","type":"string","indexed":false,"internalType":"string"}],"anonymous":false},{"type":"event","name":"MerchantUpdated","inputs":[{"name":"merchantId","type":"uint256","indexed":true,"internalType":"uint256"},{"name":"name","type":"string","indexed":false,"internalType":"string"},{"name":"webhookUrl","type":"string","indexed":false,"internalType":"string"}],"anonymous":false},{"type":"event","name":"PaymentProcessed","inputs":[{"name":"paymentId","type":"bytes32","indexed":true,"internalType":"bytes32"},{"name":"planId","type":"uint256","indexed":true,"internalType":"uint256"},{"name":"subscriber","type":"address","indexed":true,"internalType":"address"},{"name":"merchant","type":"address","indexed":false,"internalType":"address"},{"name":"amount","type":"uint256","indexed":false,"internalType":"uint256"},{"name":"timestamp","type":"uint256","indexed":false,"internalType":"uint256"}],"anonymous":false},{"type":"event","name":"PlanCreated","inputs":[{"name":"planId","type":"uint256","indexed":true,"internalType":"uint256"},{"name":"merchantId","type":"uint256","indexed":true,"internalType":"uint256"},{"name":"name","type":"string","indexed":false,"internalType":"string"},{"name":"priceInMUSD","type":"uint256","indexed":false,"internalType":"uint256"},{"name":"planType","type":"uint8","indexed":false,"internalType":"enum IMezoPayTypes.PlanType"},{"name":"billingInterval","type":"uint256","indexed":false,"internalType":"uint256"}],"anonymous":false},{"type":"event","name":"PlanDeactivated","inputs":[{"name":"planId","type":"uint256","indexed":true,"internalType":"uint256"}],"anonymous":false},{"type":"event","name":"SubscriptionCancelled","inputs":[{"name":"subscriptionId","type":"uint256","indexed":true,"internalType":"uint256"},{"name":"planId","type":"uint256","indexed":true,"internalType":"uint256"},{"name":"subscriber","type":"address","indexed":true,"internalType":"address"}],"anonymous":false},{"type":"event","name":"SubscriptionCreated","inputs":[{"name":"subscriptionId","type":"uint256","indexed":true,"internalType":"uint256"},{"name":"planId","type":"uint256","indexed":true,"internalType":"uint256"},{"name":"subscriber","type":"address","indexed":true,"internalType":"address"},{"name":"merchant","type":"address","indexed":false,"internalType":"address"}],"anonymous":false}],"bytecode":{"object":"0x60a060405260015f55348015610013575f80fd5b506040516111853803806111858339810160408190526100329161009d565b6001600160a01b03811661008c5760405162461bcd60e51b815260206004820152601e60248201527f4d657a6f506179506c616e733a20696e76616c69642072656769737472790000604482015260640160405180910390fd5b6001600160a01b03166080526100ca565b5f602082840312156100ad575f80fd5b81516001600160a01b03811681146100c3575f80fd5b9392505050565b60805161109c6100e95f395f818161012401526101a8015261109c5ff3fe608060405234801561000f575f80fd5b5060043610610085575f3560e01c8063382d39bb11610058578063382d39bb146101025780636174bc631461010a5780637b1039991461011f578063b16206161461015e575f80fd5b806305f1c4de146100895780630b2f39d9146100af57806326cd5274146100c25780632fa604c2146100e2575b5f80fd5b61009c610097366004610a44565b610186565b6040519081526020015b60405180910390f35b61009c6100bd366004610ae2565b6105c5565b6100d56100d0366004610b02565b6105f0565b6040516100a69190610b9a565b6100f56100f0366004610b02565b61079a565b6040516100a69190610c36565b61009c6107f9565b61011d610118366004610b02565b61080d565b005b6101467f000000000000000000000000000000000000000000000000000000000000000081565b6040516001600160a01b0390911681526020016100a6565b61017161016c366004610b02565b610904565b6040516100a699989796959493929190610c79565b604051632e993cc560e11b8152600481018790525f9081906001600160a01b037f00000000000000000000000000000000000000000000000000000000000000001690635d32798a906024015f60405180830381865afa1580156101ec573d5f803e3d5ffd5b505050506040513d5f823e601f3d908101601f191682016040526102139190810190610dcd565b60208101519091506001600160a01b031633146102775760405162461bcd60e51b815260206004820181905260248201527f4d657a6f506179506c616e733a206e6f74206d65726368616e74206f776e657260448201526064015b60405180910390fd5b856102c45760405162461bcd60e51b815260206004820152601b60248201527f4d657a6f506179506c616e733a206e616d652072657175697265640000000000604482015260640161026e565b5f85116103135760405162461bcd60e51b815260206004820152601f60248201527f4d657a6f506179506c616e733a207072696365206d757374206265203e203000604482015260640161026e565b5f84600281111561032657610326610b66565b0361039257821561038d5760405162461bcd60e51b815260206004820152602b60248201527f4d657a6f506179506c616e733a204f4e455f54494d45206d757374206861766560448201526a080c081a5b9d195c9d985b60aa1b606482015260840161026e565b6103f9565b5f83116103f95760405162461bcd60e51b815260206004820152602f60248201527f4d657a6f506179506c616e733a20726563757272696e6720706c616e73206e6560448201526e0656420696e74657276616c203e203608c1b606482015260840161026e565b5f8054908061040783610ea5565b919050559150604051806101200160405280838152602001898152602001336001600160a01b0316815260200188888080601f0160208091040260200160405190810160405280939291908181526020018383808284375f920191909152505050908252506020810187905260400185600281111561048857610488610b66565b8152602080820186905260016040808401829052426060948501525f8781528284528190208551815592850151918301919091558301516002820180546001600160a01b0319166001600160a01b039092169190911790559082015160038201906104f39082610f41565b506080820151600482015560a082015160058201805460ff1916600183600281111561052157610521610b66565b021790555060c0820151600682015560e082015160078201805460ff1916911515919091179055610100909101516008909101555f8881526002602090815260408083208054600181018255908452919092200183905551889083907fcd1a7d8f6346f1b62959f46daeb912e7a8309a82630915e69e83a93416215e31906105b2908b908b908b908b908b90611001565b60405180910390a3509695505050505050565b6002602052815f5260405f2081815481106105de575f80fd5b905f5260205f20015f91509150505481565b6105f86109e4565b5f828152600160205260409020600201546001600160a01b031661065e5760405162461bcd60e51b815260206004820152601760248201527f4d657a6f506179506c616e733a206e6f7420666f756e64000000000000000000604482015260640161026e565b5f8281526001602081815260409283902083516101208101855281548152928101549183019190915260028101546001600160a01b0316928201929092526003820180549192916060840191906106b490610ebd565b80601f01602080910402602001604051908101604052809291908181526020018280546106e090610ebd565b801561072b5780601f106107025761010080835404028352916020019161072b565b820191905f5260205f20905b81548152906001019060200180831161070e57829003601f168201915b505050918352505060048201546020820152600582015460409091019060ff16600281111561075c5761075c610b66565b600281111561076d5761076d610b66565b815260068201546020820152600782015460ff161515604082015260089091015460609091015292915050565b5f818152600260209081526040918290208054835181840281018401909452808452606093928301828280156107ed57602002820191905f5260205f20905b8154815260200190600101908083116107d9575b50505050509050919050565b5f60015f54610808919061104d565b905090565b5f81815260016020526040902060028101546001600160a01b031633146108765760405162461bcd60e51b815260206004820152601c60248201527f4d657a6f506179506c616e733a206e6f7420706c616e206f776e657200000000604482015260640161026e565b600781015460ff166108ca5760405162461bcd60e51b815260206004820152601e60248201527f4d657a6f506179506c616e733a20616c726561647920696e6163746976650000604482015260640161026e565b60078101805460ff1916905560405182907f9d249762cccbda1c5e13d7d903a7fd4d9787cebc8b34172efbf22b612e90c14c905f90a25050565b600160208190525f9182526040909120805491810154600282015460038301805492936001600160a01b039092169261093c90610ebd565b80601f016020809104026020016040519081016040528092919081815260200182805461096890610ebd565b80156109b35780601f1061098a576101008083540402835291602001916109b3565b820191905f5260205f20905b81548152906001019060200180831161099657829003601f168201915b50505060048401546005850154600686015460078701546008909701549596929560ff928316955090935091169089565b6040518061012001604052805f81526020015f81526020015f6001600160a01b03168152602001606081526020015f81526020015f6002811115610a2a57610a2a610b66565b81526020015f81526020015f151581526020015f81525090565b5f805f805f8060a08789031215610a59575f80fd5b86359550602087013567ffffffffffffffff80821115610a77575f80fd5b818901915089601f830112610a8a575f80fd5b813581811115610a98575f80fd5b8a6020828501011115610aa9575f80fd5b60208301975080965050505060408701359250606087013560038110610acd575f80fd5b80925050608087013590509295509295509295565b5f8060408385031215610af3575f80fd5b50508035926020909101359150565b5f60208284031215610b12575f80fd5b5035919050565b5f5b83811015610b33578181015183820152602001610b1b565b50505f910152565b5f8151808452610b52816020860160208601610b19565b601f01601f19169290920160200192915050565b634e487b7160e01b5f52602160045260245ffd5b60038110610b9657634e487b7160e01b5f52602160045260245ffd5b9052565b6020815281516020820152602082015160408201525f6040830151610bca60608401826001600160a01b03169052565b506060830151610120806080850152610be7610140850183610b3b565b9150608085015160a085015260a0850151610c0560c0860182610b7a565b5060c085015160e085015260e0850151610100610c258187018315159052565b959095015193019290925250919050565b602080825282518282018190525f9190848201906040850190845b81811015610c6d57835183529284019291840191600101610c51565b50909695505050505050565b898152602081018990526001600160a01b0388166040820152610120606082018190525f90610caa8382018a610b3b565b915050866080830152610cc060a0830187610b7a565b60c082019490945291151560e0830152610100909101529695505050505050565b634e487b7160e01b5f52604160045260245ffd5b60405160c0810167ffffffffffffffff81118282101715610d1857610d18610ce1565b60405290565b80516001600160a01b0381168114610d34575f80fd5b919050565b5f82601f830112610d48575f80fd5b815167ffffffffffffffff80821115610d6357610d63610ce1565b604051601f8301601f19908116603f01168101908282118183101715610d8b57610d8b610ce1565b81604052838152866020858801011115610da3575f80fd5b610db4846020830160208901610b19565b9695505050505050565b80518015158114610d34575f80fd5b5f60208284031215610ddd575f80fd5b815167ffffffffffffffff80821115610df4575f80fd5b9083019060c08286031215610e07575f80fd5b610e0f610cf5565b82518152610e1f60208401610d1e565b6020820152604083015182811115610e35575f80fd5b610e4187828601610d39565b604083015250606083015182811115610e58575f80fd5b610e6487828601610d39565b606083015250610e7660808401610dbe565b608082015260a083015160a082015280935050505092915050565b634e487b7160e01b5f52601160045260245ffd5b5f60018201610eb657610eb6610e91565b5060010190565b600181811c90821680610ed157607f821691505b602082108103610eef57634e487b7160e01b5f52602260045260245ffd5b50919050565b601f821115610f3c57805f5260205f20601f840160051c81016020851015610f1a5750805b601f840160051c820191505b81811015610f39575f8155600101610f26565b50505b505050565b815167ffffffffffffffff811115610f5b57610f5b610ce1565b610f6f81610f698454610ebd565b84610ef5565b602080601f831160018114610fa2575f8415610f8b5750858301515b5f19600386901b1c1916600185901b178555610ff9565b5f85815260208120601f198616915b82811015610fd057888601518255948401946001909101908401610fb1565b5085821015610fed57878501515f19600388901b60f8161c191681555b505060018460011b0185555b505050505050565b60808152846080820152848660a08301375f60a086830101525f60a0601f19601f880116830101905084602083015261103d6040830185610b7a565b8260608301529695505050505050565b8181038181111561106057611060610e91565b9291505056fea264697066735822122018b9baeed155bf9fa49608717e61cb499bf8ba90b4f2005b2770eb6352e88cda64736f6c63430008180033","linkReferences":{}},"methodIdentifiers":{"createPlan(uint256,string,uint256,uint8,uint256)":"05f1c4de","deactivatePlan(uint256)":"6174bc63","getMerchantPlans(uint256)":"2fa604c2","getPlan(uint256)":"26cd5274","merchantPlans(uint256,uint256)":"0b2f39d9","planCount()":"382d39bb","plans(uint256)":"b1620616","registry()":"7b103999"},"id":31}