{"abi":[{"type":"function","name":"getMerchant","inputs":[{"name":"merchantId","type":"uint256","internalType":"uint256"}],"outputs":[{"name":"","type":"tuple","internalType":"struct IMezoPayTypes.Merchant","components":[{"name":"merchantId","type":"uint256","internalType":"uint256"},{"name":"wallet","type":"address","internalType":"address"},{"name":"name","type":"string","internalType":"string"},{"name":"webhookUrl","type":"string","internalType":"string"},{"name":"active","type":"bool","internalType":"bool"},{"name":"createdAt","type":"uint256","internalType":"uint256"}]}],"stateMutability":"view"},{"type":"function","name":"getMerchantIdByWallet","inputs":[{"name":"wallet","type":"address","internalType":"address"}],"outputs":[{"name":"","type":"uint256","internalType":"uint256"}],"stateMutability":"view"},{"type":"function","name":"isMerchant","inputs":[{"name":"wallet","type":"address","internalType":"address"}],"outputs":[{"name":"","type":"bool","internalType":"bool"}],"stateMutability":"view"},{"type":"function","name":"merchantByWallet","inputs":[{"name":"","type":"address","internalType":"address"}],"outputs":[{"name":"","type":"uint256","internalType":"uint256"}],"stateMutability":"view"},{"type":"function","name":"merchantCount","inputs":[],"outputs":[{"name":"","type":"uint256","internalType":"uint256"}],"stateMutability":"view"},{"type":"function","name":"merchants","inputs":[{"name":"","type":"uint256","internalType":"uint256"}],"outputs":[{"name":"merchantId","type":"uint256","internalType":"uint256"},{"name":"wallet","type":"address","internalType":"address"},{"name":"name","type":"string","internalType":"string"},{"name":"webhookUrl","type":"string","internalType":"string"},{"name":"active","type":"bool","internalType":"bool"},{"name":"createdAt","type":"uint256","internalType":"uint256"}],"stateMutability":"view"},{"type":"function","name":"registerMerchant","inputs":[{"name":"name","type":"string","internalType":"string"},{"name":"webhookUrl","type":"string","internalType":"string"}],"outputs":[{"name":"merchantId","type":"uint256","internalType":"uint256"}],"stateMutability":"nonpayable"},{"type":"function","name":"updateMerchant","inputs":[{"name":"merchantId","type":"uint256","internalType":"uint256"},{"name":"name","type":"string","internalType":"string"},{"name":"webhookUrl","type":"string","internalType":"string"}],"outputs":[],"stateMutability":"nonpayable"},{"type":"event","name":"MerchantRegistered","inputs":[{"name":"merchantId","type":"uint256","indexed":true,"internalType":"uint256"},{"name":"wallet","type":"address","indexed":true,"internalType":"address"},{"name":"name","type":"string","indexed":false,"internalType":"string"}],"anonymous":false},{"type":"event","name":"MerchantUpdated","inputs":[{"name":"merchantId","type":"uint256","indexed":true,"internalType":"uint256"},{"name":"name","type":"string","indexed":false,"internalType":"string"},{"name":"webhookUrl","type":"string","indexed":false,"internalType":"string"}],"anonymous":false},{"type":"event","name":"PaymentProcessed","inputs":[{"name":"paymentId","type":"bytes32","indexed":true,"internalType":"bytes32"},{"name":"planId","type":"uint256","indexed":true,"internalType":"uint256"},{"name":"subscriber","type":"address","indexed":true,"internalType":"address"},{"name":"merchant","type":"address","indexed":false,"internalType":"address"},{"name":"amount","type":"uint256","indexed":false,"internalType":"uint256"},{"name":"timestamp","type":"uint256","indexed":false,"internalType":"uint256"}],"anonymous":false},{"type":"event","name":"PlanCreated","inputs":[{"name":"planId","type":"uint256","indexed":true,"internalType":"uint256"},{"name":"merchantId","type":"uint256","indexed":true,"internalType":"uint256"},{"name":"name","type":"string","indexed":false,"internalType":"string"},{"name":"priceInMUSD","type":"uint256","indexed":false,"internalType":"uint256"},{"name":"planType","type":"uint8","indexed":false,"internalType":"enum IMezoPayTypes.PlanType"},{"name":"billingInterval","type":"uint256","indexed":false,"internalType":"uint256"}],"anonymous":false},{"type":"event","name":"PlanDeactivated","inputs":[{"name":"planId","type":"uint256","indexed":true,"internalType":"uint256"}],"anonymous":false},{"type":"event","name":"SubscriptionCancelled","inputs":[{"name":"subscriptionId","type":"uint256","indexed":true,"internalType":"uint256"},{"name":"planId","type":"uint256","indexed":true,"internalType":"uint256"},{"name":"subscriber","type":"address","indexed":true,"internalType":"address"}],"anonymous":false},{"type":"event","name":"SubscriptionCreated","inputs":[{"name":"subscriptionId","type":"uint256","indexed":true,"internalType":"uint256"},{"name":"planId","type":"uint256","indexed":true,"internalType":"uint256"},{"name":"subscriber","type":"address","indexed":true,"internalType":"address"},{"name":"merchant","type":"address","indexed":false,"internalType":"address"}],"anonymous":false}],"bytecode":{"object":"0x608060405260015f55348015610013575f80fd5b50610de6806100215f395ff3fe608060405234801561000f575f80fd5b5060043610610085575f3560e01c80635d32798a116100585780635d32798a146101265780636c0e301b14610146578063891051851461016557806392c8823b1461016d575f80fd5b80631a2f7167146100895780632c7f5345146100c8578063395603b6146100dd57806339b13648146100fe575b5f80fd5b6100b3610097366004610876565b6001600160a01b03165f90815260026020526040902054151590565b60405190151581526020015b60405180910390f35b6100db6100d63660046108e8565b610192565b005b6100f06100eb36600461095c565b6102b5565b6040519081526020016100bf565b6100f061010c366004610876565b6001600160a01b03165f9081526002602052604090205490565b6101396101343660046109c3565b6104f4565b6040516100bf9190610a1d565b6100f0610154366004610876565b60026020525f908152604090205481565b6100f0610713565b61018061017b3660046109c3565b610727565b6040516100bf96959493929190610a94565b5f858152600160208190526040909120908101546001600160a01b031633146102025760405162461bcd60e51b815260206004820152601a60248201527f4d657a6f50617952656769737472793a206e6f74206f776e657200000000000060448201526064015b60405180910390fd5b8361024f5760405162461bcd60e51b815260206004820152601e60248201527f4d657a6f50617952656769737472793a206e616d65207265717569726564000060448201526064016101f9565b6002810161025e858783610b7d565b506003810161026e838583610b7d565b50857f72f9c0f0305bafe16cadbcacbf51d2f4f84db73a4264bf31ba293edfa255006e868686866040516102a59493929190610c5f565b60405180910390a2505050505050565b335f908152600260205260408120541561031d5760405162461bcd60e51b815260206004820152602360248201527f4d657a6f50617952656769737472793a20616c726561647920726567697374656044820152621c995960ea1b60648201526084016101f9565b8361036a5760405162461bcd60e51b815260206004820152601e60248201527f4d657a6f50617952656769737472793a206e616d65207265717569726564000060448201526064016101f9565b5f8054908061037883610ca4565b9190505590506040518060c00160405280828152602001336001600160a01b0316815260200186868080601f0160208091040260200160405190810160405280939291908181526020018383808284375f92019190915250505090825250604080516020601f8701819004810282018101909252858152918101919086908690819084018382808284375f9201829052509385525050600160208085018290524260409586015286845281815292849020855181559285015190830180546001600160a01b0319166001600160a01b03909216919091179055509082015160028201906104659082610cbc565b506060820151600382019061047a9082610cbc565b50608082015160048201805460ff191691151591909117905560a090910151600590910155335f81815260026020526040908190208390555182907f9b00c58f3c39e0e1045f3a2532b14273f3c325f051f1e561eba1d16a40efe950906104e49089908990610d7c565b60405180910390a3949350505050565b6105346040518060c001604052805f81526020015f6001600160a01b0316815260200160608152602001606081526020015f151581526020015f81525090565b5f82815260016020819052604090912001546001600160a01b031661059b5760405162461bcd60e51b815260206004820152601a60248201527f4d657a6f50617952656769737472793a206e6f7420666f756e6400000000000060448201526064016101f9565b5f82815260016020818152604092839020835160c08101855281548152928101546001600160a01b03169183019190915260028101805492939192918401916105e390610af9565b80601f016020809104026020016040519081016040528092919081815260200182805461060f90610af9565b801561065a5780601f106106315761010080835404028352916020019161065a565b820191905f5260205f20905b81548152906001019060200180831161063d57829003601f168201915b5050505050815260200160038201805461067390610af9565b80601f016020809104026020016040519081016040528092919081815260200182805461069f90610af9565b80156106ea5780601f106106c1576101008083540402835291602001916106ea565b820191905f5260205f20905b8154815290600101906020018083116106cd57829003601f168201915b5050509183525050600482015460ff161515602082015260059091015460409091015292915050565b5f60015f546107229190610d97565b905090565b600160208190525f91825260409091208054918101546002820180546001600160a01b03909216929161075990610af9565b80601f016020809104026020016040519081016040528092919081815260200182805461078590610af9565b80156107d05780601f106107a7576101008083540402835291602001916107d0565b820191905f5260205f20905b8154815290600101906020018083116107b357829003601f168201915b5050505050908060030180546107e590610af9565b80601f016020809104026020016040519081016040528092919081815260200182805461081190610af9565b801561085c5780601f106108335761010080835404028352916020019161085c565b820191905f5260205f20905b81548152906001019060200180831161083f57829003601f168201915b505050506004830154600590930154919260ff1691905086565b5f60208284031215610886575f80fd5b81356001600160a01b038116811461089c575f80fd5b9392505050565b5f8083601f8401126108b3575f80fd5b50813567ffffffffffffffff8111156108ca575f80fd5b6020830191508360208285010111156108e1575f80fd5b9250929050565b5f805f805f606086880312156108fc575f80fd5b85359450602086013567ffffffffffffffff8082111561091a575f80fd5b61092689838a016108a3565b9096509450604088013591508082111561093e575f80fd5b5061094b888289016108a3565b969995985093965092949392505050565b5f805f806040858703121561096f575f80fd5b843567ffffffffffffffff80821115610986575f80fd5b610992888389016108a3565b909650945060208701359150808211156109aa575f80fd5b506109b7878288016108a3565b95989497509550505050565b5f602082840312156109d3575f80fd5b5035919050565b5f81518084525f5b818110156109fe576020818501810151868301820152016109e2565b505f602082860101526020601f19601f83011685010191505092915050565b602081528151602082015260018060a01b0360208301511660408201525f604083015160c06060840152610a5460e08401826109da565b90506060840151601f19848303016080850152610a7182826109da565b9150506080840151151560a084015260a084015160c08401528091505092915050565b8681526001600160a01b038616602082015260c0604082018190525f90610abd908301876109da565b8281036060840152610acf81876109da565b9415156080840152505060a00152949350505050565b634e487b7160e01b5f52604160045260245ffd5b600181811c90821680610b0d57607f821691505b602082108103610b2b57634e487b7160e01b5f52602260045260245ffd5b50919050565b601f821115610b7857805f5260205f20601f840160051c81016020851015610b565750805b601f840160051c820191505b81811015610b75575f8155600101610b62565b50505b505050565b67ffffffffffffffff831115610b9557610b95610ae5565b610ba983610ba38354610af9565b83610b31565b5f601f841160018114610bda575f8515610bc35750838201355b5f19600387901b1c1916600186901b178355610b75565b5f83815260208120601f198716915b82811015610c095786850135825560209485019460019092019101610be9565b5086821015610c25575f1960f88860031b161c19848701351681555b505060018560011b0183555050505050565b81835281816020850137505f828201602090810191909152601f909101601f19169091010190565b604081525f610c72604083018688610c37565b8281036020840152610c85818587610c37565b979650505050505050565b634e487b7160e01b5f52601160045260245ffd5b5f60018201610cb557610cb5610c90565b5060010190565b815167ffffffffffffffff811115610cd657610cd6610ae5565b610cea81610ce48454610af9565b84610b31565b602080601f831160018114610d1d575f8415610d065750858301515b5f19600386901b1c1916600185901b178555610d74565b5f85815260208120601f198616915b82811015610d4b57888601518255948401946001909101908401610d2c565b5085821015610d6857878501515f19600388901b60f8161c191681555b505060018460011b0185555b505050505050565b602081525f610d8f602083018486610c37565b949350505050565b81810381811115610daa57610daa610c90565b9291505056fea264697066735822122078bdd428a6ad1560c697eb1ad475c6cbb5181755a4894a714167b35dc6681a1d64736f6c63430008180033","linkReferences":{}},"methodIdentifiers":{"getMerchant(uint256)":"5d32798a","getMerchantIdByWallet(address)":"39b13648","isMerchant(address)":"1a2f7167","merchantByWallet(address)":"6c0e301b","merchantCount()":"89105185","merchants(uint256)":"92c8823b","registerMerchant(string,string)":"395603b6","updateMerchant(uint256,string,string)":"2c7f5345"},"id":33}