{"abi":[{"type":"constructor","inputs":[{"name":"_musd","type":"address","internalType":"address"},{"name":"_plansContract","type":"address","internalType":"address"}],"stateMutability":"nonpayable"},{"type":"function","name":"cancelSubscription","inputs":[{"name":"planId","type":"uint256","internalType":"uint256"}],"outputs":[],"stateMutability":"nonpayable"},{"type":"function","name":"getPlanRevenue","inputs":[{"name":"planId","type":"uint256","internalType":"uint256"}],"outputs":[{"name":"","type":"uint256","internalType":"uint256"}],"stateMutability":"view"},{"type":"function","name":"getPlanSubscribers","inputs":[{"name":"planId","type":"uint256","internalType":"uint256"}],"outputs":[{"name":"","type":"address[]","internalType":"address[]"}],"stateMutability":"view"},{"type":"function","name":"getSubscription","inputs":[{"name":"subscriber","type":"address","internalType":"address"},{"name":"planId","type":"uint256","internalType":"uint256"}],"outputs":[{"name":"","type":"tuple","internalType":"struct IMezoPayTypes.Subscription","components":[{"name":"subscriptionId","type":"uint256","internalType":"uint256"},{"name":"planId","type":"uint256","internalType":"uint256"},{"name":"subscriber","type":"address","internalType":"address"},{"name":"merchant","type":"address","internalType":"address"},{"name":"priceInMUSD","type":"uint256","internalType":"uint256"},{"name":"nextPaymentDue","type":"uint256","internalType":"uint256"},{"name":"billingInterval","type":"uint256","internalType":"uint256"},{"name":"active","type":"bool","internalType":"bool"},{"name":"createdAt","type":"uint256","internalType":"uint256"}]}],"stateMutability":"view"},{"type":"function","name":"isPaymentDue","inputs":[{"name":"subscriber","type":"address","internalType":"address"},{"name":"planId","type":"uint256","internalType":"uint256"}],"outputs":[{"name":"","type":"bool","internalType":"bool"}],"stateMutability":"view"},{"type":"function","name":"isSubscriptionActive","inputs":[{"name":"subscriber","type":"address","internalType":"address"},{"name":"planId","type":"uint256","internalType":"uint256"}],"outputs":[{"name":"","type":"bool","internalType":"bool"}],"stateMutability":"view"},{"type":"function","name":"musd","inputs":[],"outputs":[{"name":"","type":"address","internalType":"contract IERC20"}],"stateMutability":"view"},{"type":"function","name":"planRevenue","inputs":[{"name":"","type":"uint256","internalType":"uint256"}],"outputs":[{"name":"","type":"uint256","internalType":"uint256"}],"stateMutability":"view"},{"type":"function","name":"planSubscribers","inputs":[{"name":"","type":"uint256","internalType":"uint256"},{"name":"","type":"uint256","internalType":"uint256"}],"outputs":[{"name":"","type":"address","internalType":"address"}],"stateMutability":"view"},{"type":"function","name":"plansContract","inputs":[],"outputs":[{"name":"","type":"address","internalType":"contract MezoPayPlans"}],"stateMutability":"view"},{"type":"function","name":"processPayment","inputs":[{"name":"subscriber","type":"address","internalType":"address"},{"name":"planId","type":"uint256","internalType":"uint256"}],"outputs":[{"name":"paymentId","type":"bytes32","internalType":"bytes32"}],"stateMutability":"nonpayable"},{"type":"function","name":"processedPayments","inputs":[{"name":"","type":"bytes32","internalType":"bytes32"}],"outputs":[{"name":"","type":"bool","internalType":"bool"}],"stateMutability":"view"},{"type":"function","name":"subscribe","inputs":[{"name":"planId","type":"uint256","internalType":"uint256"}],"outputs":[{"name":"paymentId","type":"bytes32","internalType":"bytes32"}],"stateMutability":"nonpayable"},{"type":"function","name":"subscriptionCount","inputs":[],"outputs":[{"name":"","type":"uint256","internalType":"uint256"}],"stateMutability":"view"},{"type":"function","name":"subscriptions","inputs":[{"name":"","type":"uint256","internalType":"uint256"}],"outputs":[{"name":"subscriptionId","type":"uint256","internalType":"uint256"},{"name":"planId","type":"uint256","internalType":"uint256"},{"name":"subscriber","type":"address","internalType":"address"},{"name":"merchant","type":"address","internalType":"address"},{"name":"priceInMUSD","type":"uint256","internalType":"uint256"},{"name":"nextPaymentDue","type":"uint256","internalType":"uint256"},{"name":"billingInterval","type":"uint256","internalType":"uint256"},{"name":"active","type":"bool","internalType":"bool"},{"name":"createdAt","type":"uint256","internalType":"uint256"}],"stateMutability":"view"},{"type":"function","name":"userSubscription","inputs":[{"name":"","type":"address","internalType":"address"},{"name":"","type":"uint256","internalType":"uint256"}],"outputs":[{"name":"","type":"uint256","internalType":"uint256"}],"stateMutability":"view"},{"type":"event","name":"MerchantRegistered","inputs":[{"name":"merchantId","type":"uint256","indexed":true,"internalType":"uint256"},{"name":"wallet","type":"address","indexed":true,"internalType":"address"},{"name":"name","type":"string","indexed":false,"internalType":"string"}],"anonymous":false},{"type":"event","name":"MerchantUpdated","inputs":[{"name":"merchantId","type":"uint256","indexed":true,"internalType":"uint256"},{"name":"name","type":"string","indexed":false,"internalType":"string"},{"name":"webhookUrl","type":"string","indexed":false,"internalType":"string"}],"anonymous":false},{"type":"event","name":"PaymentProcessed","inputs":[{"name":"paymentId","type":"bytes32","indexed":true,"internalType":"bytes32"},{"name":"planId","type":"uint256","indexed":true,"internalType":"uint256"},{"name":"subscriber","type":"address","indexed":true,"internalType":"address"},{"name":"merchant","type":"address","indexed":false,"internalType":"address"},{"name":"amount","type":"uint256","indexed":false,"internalType":"uint256"},{"name":"timestamp","type":"uint256","indexed":false,"internalType":"uint256"}],"anonymous":false},{"type":"event","name":"PlanCreated","inputs":[{"name":"planId","type":"uint256","indexed":true,"internalType":"uint256"},{"name":"merchantId","type":"uint256","indexed":true,"internalType":"uint256"},{"name":"name","type":"string","indexed":false,"internalType":"string"},{"name":"priceInMUSD","type":"uint256","indexed":false,"internalType":"uint256"},{"name":"planType","type":"uint8","indexed":false,"internalType":"enum IMezoPayTypes.PlanType"},{"name":"billingInterval","type":"uint256","indexed":false,"internalType":"uint256"}],"anonymous":false},{"type":"event","name":"PlanDeactivated","inputs":[{"name":"planId","type":"uint256","indexed":true,"internalType":"uint256"}],"anonymous":false},{"type":"event","name":"SubscriptionCancelled","inputs":[{"name":"subscriptionId","type":"uint256","indexed":true,"internalType":"uint256"},{"name":"planId","type":"uint256","indexed":true,"internalType":"uint256"},{"name":"subscriber","type":"address","indexed":true,"internalType":"address"}],"anonymous":false},{"type":"event","name":"SubscriptionCreated","inputs":[{"name":"subscriptionId","type":"uint256","indexed":true,"internalType":"uint256"},{"name":"planId","type":"uint256","indexed":true,"internalType":"uint256"},{"name":"subscriber","type":"address","indexed":true,"internalType":"address"},{"name":"merchant","type":"address","indexed":false,"internalType":"address"}],"anonymous":false},{"type":"error","name":"ReentrancyGuardReentrantCall","inputs":[]},{"type":"error","name":"SafeERC20FailedOperation","inputs":[{"name":"token","type":"address","internalType":"address"}]}],"bytecode":{"object":"0x60c060405260015f556001805534801562000018575f80fd5b50604051620016ac380380620016ac8339810160408190526200003b9162000147565b60017f9b779b17422d0df92223018b32b4d1fa46e071723d6817e2486d003becc55f00556001600160a01b038216620000bb5760405162461bcd60e51b815260206004820152601e60248201527f4d657a6f50617950726f636573736f723a20696e76616c6964204d555344000060448201526064015b60405180910390fd5b6001600160a01b038116620001135760405162461bcd60e51b815260206004820152601f60248201527f4d657a6f50617950726f636573736f723a20696e76616c696420706c616e73006044820152606401620000b2565b6001600160a01b039182166080521660a0526200017d565b80516001600160a01b038116811462000142575f80fd5b919050565b5f806040838503121562000159575f80fd5b62000164836200012b565b915062000174602084016200012b565b90509250929050565b60805160a0516114f8620001b45f395f81816102a1015261068e01525f81816103260152818161057a01526108cb01526114f85ff3fe608060405234801561000f575f80fd5b50600436106100fb575f3560e01c80633de4b5fa116100935780635a2bbe3c116100635780635a2bbe3c1461030e578063cab666d014610321578063e3c9fc7314610348578063f3f247eb14610367575f80fd5b80633de4b5fa14610279578063471a3bc11461029c5780634cd484c3146102db57806356765146146102fb575f80fd5b80632234b0c9116100ce5780632234b0c9146101555780632d5bbf60146101745780633ae9a18e1461022f5780633ceaa1041461024f575f80fd5b80630b63fe95146100ff5780630f574ba714610125578063173b6d90146101385780632123508314610140575b5f80fd5b61011261010d3660046110aa565b610389565b6040519081526020015b60405180910390f35b6101126101333660046110d4565b61066d565b610112610b60565b61015361014e3660046110d4565b610b74565b005b6101126101633660046110d4565b5f9081526006602052604090205490565b6101dd6101823660046110d4565b600260208190525f91825260409091208054600182015492820154600383015460048401546005850154600686015460078701546008909701549597966001600160a01b0395861696959094169492939192909160ff169089565b60408051998a5260208a01989098526001600160a01b0396871697890197909752949093166060870152608086019190915260a085015260c0840152151560e08301526101008201526101200161011c565b61024261023d3660046110aa565b610cb8565b60405161011c91906110eb565b61011261025d3660046110aa565b600360209081525f928352604080842090915290825290205481565b61028c6102873660046110aa565b610de0565b604051901515815260200161011c565b6102c37f000000000000000000000000000000000000000000000000000000000000000081565b6040516001600160a01b03909116815260200161011c565b6102ee6102e93660046110d4565b610e2e565b60405161011c9190611164565b61028c6103093660046110aa565b610e97565b6102c361031c3660046111b0565b610f6a565b6102c37f000000000000000000000000000000000000000000000000000000000000000081565b6101126103563660046110d4565b60066020525f908152604090205481565b61028c6103753660046110d4565b60046020525f908152604090205460ff1681565b5f610392610f9e565b6001600160a01b0383165f908152600360209081526040808320858452909152812054908190036103de5760405162461bcd60e51b81526004016103d5906111d0565b60405180910390fd5b5f818152600260205260409020600781015460ff1661044f5760405162461bcd60e51b815260206004820152602760248201527f4d657a6f50617950726f636573736f723a20737562736372697074696f6e20696044820152666e61637469766560c81b60648201526084016103d5565b80600501544210156104a35760405162461bcd60e51b815260206004820152601d60248201527f4d657a6f50617950726f636573736f723a206e6f74206475652079657400000060448201526064016103d5565b8484424360015f8154809291906104b990611225565b9091555060405160609590951b6bffffffffffffffffffffffff1916602086015260348501939093526054840191909152607483015268726563757272696e6760b81b6094830152609d82015260bd0160408051601f1981840301815291815281516020928301205f818152600490935291205490935060ff16156105505760405162461bcd60e51b81526004016103d59061123d565b5f838152600460208190526040909120805460ff191660011790556003820154908201546105b1917f00000000000000000000000000000000000000000000000000000000000000006001600160a01b039081169289929190911690610fb9565b8060060154816005015f8282546105c89190611280565b909155505060048101545f85815260066020526040812080549091906105ef908490611280565b909155505060038101546004820154604080516001600160a01b039384168152602081019290925242828201525191871691869186917faff5e3d79340883fce595d978544db550cd1fc7835b47f4208d9fe29ea53f8359181900360600190a4505061066760015f805160206114a383398151915255565b92915050565b5f610676610f9e565b6040516309b3549d60e21b8152600481018390525f907f00000000000000000000000000000000000000000000000000000000000000006001600160a01b0316906326cd5274906024015f60405180830381865afa1580156106da573d5f803e3d5ffd5b505050506040513d5f823e601f3d908101601f1916820160405261070191908101906113aa565b90508060e001516107545760405162461bcd60e51b815260206004820152601f60248201527f4d657a6f50617950726f636573736f723a20706c616e20696e6163746976650060448201526064016103d5565b60018160a00151600281111561076c5761076c61147b565b0361080057335f90815260036020908152604080832086845290915290205480156107fe575f8181526002602052604090206007015460ff16156107fe5760405162461bcd60e51b8152602060048201526024808201527f4d657a6f50617950726f636573736f723a20616c7265616479207375627363726044820152631a58995960e21b60648201526084016103d5565b505b3383424360015f81548092919061081690611225565b9091555060405160609590951b6bffffffffffffffffffffffff19166020860152603485019390935260548401919091526074830152609482015260b40160408051601f1981840301815291815281516020928301205f818152600490935291205490925060ff161561089b5760405162461bcd60e51b81526004016103d59061123d565b5f8281526004602052604090819020805460ff1916600117905581015160808201516108f4916001600160a01b037f00000000000000000000000000000000000000000000000000000000000000001691339190610fb9565b60808101515f8481526006602052604081208054909190610916908490611280565b9091555050604081810151608083015182516001600160a01b0390921682526020820152428183015290513391859185917faff5e3d79340883fce595d978544db550cd1fc7835b47f4208d9fe29ea53f835919081900360600190a460018160a00151600281111561098a5761098a61147b565b14806109ab575060028160a0015160028111156109a9576109a961147b565b145b15610b44575f805481806109be83611225565b919050559050604051806101200160405280828152602001858152602001336001600160a01b0316815260200183604001516001600160a01b03168152602001836080015181526020018360c0015142610a189190611280565b815260c08481015160208084019190915260016040808501829052426060958601525f87815260028085528282208851815588860151818601558884015191810180546001600160a01b03199081166001600160a01b039485161790915597890151600380830180548b169285169290921790915560808a0151600483015560a08a0151600580840191909155978a0151600683015560e08a015160078301805460ff191691151591909117905561010090990151600890910155338083529785528282208c8352855282822089905594845281812080549384018155815283902090910180549094168517909355828601519251929091168252869184917fab491dd3d6e49539e0ab3e9b4faf475da1a5fc2632ce0f3850c0481a999d8319910160405180910390a4505b50610b5b60015f805160206114a383398151915255565b919050565b5f60015f54610b6f919061148f565b905090565b335f90815260036020908152604080832084845290915281205490819003610bae5760405162461bcd60e51b81526004016103d5906111d0565b5f818152600260208190526040909120908101546001600160a01b03163314610c195760405162461bcd60e51b815260206004820181905260248201527f4d657a6f50617950726f636573736f723a206e6f74207375627363726962657260448201526064016103d5565b600781015460ff16610c795760405162461bcd60e51b815260206004820152602360248201527f4d657a6f50617950726f636573736f723a20616c72656164792063616e63656c6044820152621b195960ea1b60648201526084016103d5565b60078101805460ff191690556040513390849084907f66f43ba68b89239cf7af6921b9dcdaf6ce93c7223af7a53e343dbedcc082a104905f90a4505050565b610d126040518061012001604052805f81526020015f81526020015f6001600160a01b031681526020015f6001600160a01b031681526020015f81526020015f81526020015f81526020015f151581526020015f81525090565b6001600160a01b0383165f90815260036020908152604080832085845290915281205490819003610d555760405162461bcd60e51b81526004016103d5906111d0565b5f9081526002602081815260409283902083516101208101855281548152600182015492810192909252918201546001600160a01b03908116938201939093526003820154909216606083015260048101546080830152600581015460a0830152600681015460c0830152600781015460ff16151560e0830152600801546101008201529392505050565b6001600160a01b0382165f908152600360209081526040808320848452909152812054808203610e13575f915050610667565b5f9081526002602052604090206007015460ff169392505050565b5f81815260056020908152604091829020805483518184028101840190945280845260609392830182828015610e8b57602002820191905f5260205f20905b81546001600160a01b03168152600190910190602001808311610e6d575b50505050509050919050565b6001600160a01b0382165f908152600360209081526040808320848452909152812054808203610eca575f915050610667565b5f8181526002602081815260409283902083516101208101855281548152600182015492810192909252918201546001600160a01b03908116938201939093526003820154909216606083015260048101546080830152600581015460a0830152600681015460c0830152600781015460ff1615801560e08401819052600890920154610100840152610f6157508060a001514210155b95945050505050565b6005602052815f5260405f208181548110610f83575f80fd5b5f918252602090912001546001600160a01b03169150829050565b610fa6610ff5565b60025f805160206114a383398151915255565b610fc7848484846001611026565b610fef57604051635274afe760e01b81526001600160a01b03851660048201526024016103d5565b50505050565b5f805160206114a38339815191525460020361102457604051633ee5aeb560e01b815260040160405180910390fd5b565b6040516323b872dd60e01b5f8181526001600160a01b038781166004528616602452604485905291602083606481808c5af1925060015f51148316611082578383151615611076573d5f823e3d81fd5b5f883b113d1516831692505b604052505f60605295945050505050565b6001600160a01b03811681146110a7575f80fd5b50565b5f80604083850312156110bb575f80fd5b82356110c681611093565b946020939093013593505050565b5f602082840312156110e4575f80fd5b5035919050565b5f610120820190508251825260208301516020830152604083015160018060a01b03808216604085015280606086015116606085015250506080830151608083015260a083015160a083015260c083015160c083015260e083015161115460e084018215159052565b5061010092830151919092015290565b602080825282518282018190525f9190848201906040850190845b818110156111a45783516001600160a01b03168352928401929184019160010161117f565b50909695505050505050565b5f80604083850312156111c1575f80fd5b50508035926020909101359150565b60208082526021908201527f4d657a6f50617950726f636573736f723a206e6f20737562736372697074696f6040820152603760f91b606082015260800190565b634e487b7160e01b5f52601160045260245ffd5b5f6001820161123657611236611211565b5060010190565b60208082526023908201527f4d657a6f50617950726f636573736f723a206475706c6963617465207061796d604082015262195b9d60ea1b606082015260800190565b8082018082111561066757610667611211565b634e487b7160e01b5f52604160045260245ffd5b604051610120810167ffffffffffffffff811182821017156112cb576112cb611293565b60405290565b604051601f8201601f1916810167ffffffffffffffff811182821017156112fa576112fa611293565b604052919050565b8051610b5b81611093565b5f82601f83011261131c575f80fd5b815167ffffffffffffffff81111561133657611336611293565b602061134a601f8301601f191682016112d1565b828152858284870101111561135d575f80fd5b5f5b8381101561137a57858101830151828201840152820161135f565b505f928101909101919091529392505050565b805160038110610b5b575f80fd5b80518015158114610b5b575f80fd5b5f602082840312156113ba575f80fd5b815167ffffffffffffffff808211156113d1575f80fd5b9083019061012082860312156113e5575f80fd5b6113ed6112a7565b825181526020830151602082015261140760408401611302565b604082015260608301518281111561141d575f80fd5b6114298782860161130d565b6060830152506080830151608082015261144560a0840161138d565b60a082015260c083015160c082015261146060e0840161139b565b60e08201526101009283015192810192909252509392505050565b634e487b7160e01b5f52602160045260245ffd5b818103818111156106675761066761121156fe9b779b17422d0df92223018b32b4d1fa46e071723d6817e2486d003becc55f00a26469706673582212204e58c5549680b662f2be4efd7d903254b9dbc1014bd00c5747cbd8d800e5b21d64736f6c63430008180033","linkReferences":{}},"methodIdentifiers":{"cancelSubscription(uint256)":"21235083","getPlanRevenue(uint256)":"2234b0c9","getPlanSubscribers(uint256)":"4cd484c3","getSubscription(address,uint256)":"3ae9a18e","isPaymentDue(address,uint256)":"56765146","isSubscriptionActive(address,uint256)":"3de4b5fa","musd()":"cab666d0","planRevenue(uint256)":"e3c9fc73","planSubscribers(uint256,uint256)":"5a2bbe3c","plansContract()":"471a3bc1","processPayment(address,uint256)":"0b63fe95","processedPayments(bytes32)":"f3f247eb","subscribe(uint256)":"0f574ba7","subscriptionCount()":"173b6d90","subscriptions(uint256)":"2d5bbf60","userSubscription(address,uint256)":"3ceaa104"},"id":32}